:100000000C942A000C9434000C9434000C943400AA
:100010000C9434000C9434000C9434000C94340090
:100020000C9434000C9434000C9434000C94340080
:100030000C9434000C9434000C9434000C94340070
:100040000C9434000C9434000C9434000C94340060
:100050000C94340011241FBECFE5D8E0DEBFCDBF25
:100060000E940A030C9435030C940000DF93CF9395
:1000700000D000D00F92CDB7DEB789836A834B835F
:100080008981282F30E03D832C838C819D818130B4
:10009000910509F443C02C813D81223031052CF4B7
:1000A0008C819D81009771F0BCC02C813D812230F4
:1000B000310509F45FC08C819D818330910509F47D
:1000C00085C0AFC08B818130A1F4AAE3B0E0EAE340
:1000D000F0E08081482F8A81282F30E081E090E095
:1000E000022E02C0880F991F0A94E2F7842B8C938A
:1000F00098C0AAE3B0E0EAE3F0E08081482F8A816B
:10010000282F30E081E090E0022E02C0880F991F76
:100110000A94E2F7809584238C9383C08B8181308D
:10012000A1F4A7E3B0E0E7E3F0E08081482F8A8103
:10013000282F30E081E090E0022E02C0880F991F46
:100140000A94E2F7842B8C936CC0A7E3B0E0E7E35A
:10015000F0E08081482F8A81282F30E081E090E014
:10016000022E02C0880F991F0A94E2F7809584231B
:100170008C9357C08B818130A1F4A4E3B0E0E4E319
:10018000F0E08081482F8A81282F30E081E090E0E4
:10019000022E02C0880F991F0A94E2F7842B8C93D9
:1001A00040C0A4E3B0E0E4E3F0E08081482F8A811E
:1001B000282F30E081E090E0022E02C0880F991FC6
:1001C0000A94E2F7809584238C932BC08B81813035
:1001D000A1F4A1E3B0E0E1E3F0E08081482F8A815F
:1001E000282F30E081E090E0022E02C0880F991F96
:1001F0000A94E2F7842B8C9314C0A1E3B0E0E1E30E
:10020000F0E08081482F8A81282F30E081E090E063
:10021000022E02C0880F991F0A94E2F7809584236A
:100220008C930F900F900F900F900F90CF91DF91C4
:100230000895DF93CF9300D000D00F92CDB7DEB7F3
:1002400089836A834B838981282F30E03D832C8307
:100250008C819D818130910509F443C02C813D81C1
:10026000223031052CF48C819D81009771F0BCC047
:100270002C813D812230310509F45FC08C819D8144
:100280008330910509F485C0AFC08B818130A1F422
:10029000ABE3B0E0EBE3F0E08081482F8A81282FC8
:1002A00030E081E090E0022E02C0880F991F0A948E
:1002B000E2F7842B8C9398C0ABE3B0E0EBE3F0E083
:1002C0008081482F8A81282F30E081E090E0022E43
:1002D00002C0880F991F0A94E2F7809584238C93BB
:1002E00083C08B818130A1F4A8E3B0E0E8E3F0E0C3
:1002F0008081482F8A81282F30E081E090E0022E13
:1003000002C0880F991F0A94E2F7842B8C936CC06B
:10031000A8E3B0E0E8E3F0E08081482F8A81282F4D
:1003200030E081E090E0022E02C0880F991F0A940D
:10033000E2F7809584238C9357C08B818130A1F4A0
:10034000A5E3B0E0E5E3F0E08081482F8A81282F23
:1003500030E081E090E0022E02C0880F991F0A94DD
:10036000E2F7842B8C9340C0A5E3B0E0E5E3F0E036
:100370008081482F8A81282F30E081E090E0022E92
:1003800002C0880F991F0A94E2F7809584238C930A
:100390002BC08B818130A1F4A2E3B0E0E2E3F0E076
:1003A0008081482F8A81282F30E081E090E0022E62
:1003B00002C0880F991F0A94E2F7842B8C9314C013
:1003C000A2E3B0E0E2E3F0E08081482F8A81282FA9
:1003D00030E081E090E0022E02C0880F991F0A945D
:1003E000E2F7809584238C930F900F900F900F90DD
:1003F0000F90CF91DF910895DF93CF93CDB7DEB704
:1004000028970FB6F894DEBF0FBECDBF89836A83ED
:100410008981282F30E03E832D834D815E814130DC
:10042000510561F18D819E818230910534F42D81D9
:100430003E812115310569F060C04D815E814230F9
:10044000510589F18D819E818330910509F440C069
:1004500054C0E9E3F0E08081282F30E08A81882FC2
:1004600090E0A90102C0559547958A95E2F7CA0127
:100470009C01217030703C832B8340C0E6E3F0E0A8
:100480008081282F30E08A81882F90E0A90102C066
:10049000559547958A95E2F7CA019C012170307005
:1004A0003C832B832BC0E3E3F0E08081282F30E0F6
:1004B0008A81882F90E0A90102C0559547958A95B9
:1004C000E2F7CA019C01217030703C832B8316C077
:1004D000E0E3F0E08081282F30E08A81882F90E0EF
:1004E000A90102C0559547958A95E2F7CA019C017A
:1004F000217030703C832B8301C004C04B815C8130
:1005000058874F838F81988528960FB6F894DEBF61
:100510000FBECDBFCF91DF910895DF93CF9300D071
:1005200000D0CDB7DEB789836A838981282F30E078
:100530003C832B838B819C818130910549F12B81F8
:100540003C81223031052CF48B819C81009761F035
:100550005AC02B813C812230310571F18B819C8105
:1005600083309105E9F14FC0ABE3B0E0EBE3F0E09D
:100570008081482F8A81282F30E081E090E0022E90
:1005800002C0880F991F0A94E2F7842B8C933BC01A
:10059000A8E3B0E0E8E3F0E08081482F8A81282FCB
:1005A00030E081E090E0022E02C0880F991F0A948B
:1005B000E2F7842B8C9327C0A5E3B0E0E5E3F0E0FD
:1005C0008081482F8A81282F30E081E090E0022E40
:1005D00002C0880F991F0A94E2F7842B8C9313C0F2
:1005E000A2E3B0E0E2E3F0E08081482F8A81282F87
:1005F00030E081E090E0022E02C0880F991F0A943B
:10060000E2F7842B8C930F900F900F900F90CF9167
:10061000DF910895DF93CF93CDB7DEB780E060E040
:1006200041E00E94360081E061E040E00E94360037
:1006300081E061E00E948D0281E061E00E94FC01A6
:10064000009731F480E060E041E00E941901F4CFAE
:1006500081E061E00E94FC018130910569F780E052
:0E06600060E040E00E941901E7CFF894FFCF60
:00000001FF
